:1000000097C00000B0C00000AEC00000ACC000004F
:10001000AAC00000A8C00000A6C00000A4C0000044
:10002000A2C00000A1C000009EC0000011C40000DA
:100030009AC0000098C0000096C0000094C0000064
:1000400092C0000090C000008EC000008CC0000074
:100050008AC0000088C0000086C0000084C0000084
:1000600082C0000080C000007EC000007CC0000094
:100070007AC0000000FF0100010000FFFF00000146
:100080000001FF002C034C005500460041002000F9
:100090004D006500640069006100200043006F00AE
:1000A0006E00740072006F006C006C0065007200DE
:1000B000000018034400650061006E00200043004A
:1000C00061006D0065007200610000000403090416
:1000D00009022200010100C03209040000010300EE
:1000E0000000092111010001222C000705810308ED
:1000F00000051201100100000008EB036A20010056
:1001000001020001050C0901A10109B009B109B3FF
:1001100009B409B509B609B70ACD0909E209E9091F
:10012000EA7501950B15002501810695058101C031
:1001300011241FBECFEFD2E0DEBFCDBF11E0A0E0A3
:10014000B1E0E8EAF0E102C005900D92A033B107FA
:10015000D9F721E0A0E3B1E001C01D92A134B207BC
:10016000E1F77ED09FC74CCF1F920F920FB60F9230
:1001700011242F933F934F935F936F937F938F93AC
:100180009F93AF93BF93EF93FF9380910001880FEC
:10019000880F80930001E3B1E295E695E695E37060
:1001A000E82BE0930001EF70F0E0EC58FF4FE49192
:1001B000809132018E1B80933201823044F081E0C5
:1001C000809331011092320181E191E009C08F3FAB
:1001D00044F481E0809330011092320186E191E095
:1001E00097D081E091E085D624D51092310110920C
:1001F0003001FF91EF91BF91AF919F918F917F91CE
:100200006F915F914F913F912F910F900FBE0F9083
:100210001F90189584B7877F84BF88E10FB6F89444
:1002200080936000109260000FBE90E080E80FB6EF
:10023000F89480936100909361000FBEFAD250D081
:10024000E8E6F0E0808181608083EBE6F0E0808189
:10025000806C80831AB88FEF8BB914B885B9089574
:10026000D9DF78948BE191E053D081E091E041D6E1
:10027000E0D4FBCF81E091E029D6E2EEF0E080818E
:1002800084608083089581E091E0EEC480910F0145
:1002900090911001009729F001979093100180939D
:1002A0000F0108950F931F93F901108299B1909552
:1002B000818190FB80F981839091310190FB81F9DC
:1002C00081839091300190FB82F9818382E090E0FC
:1002D000F8019183808380E01F910F910895089524
:1002E0001092CD0087E68093CC00E8ECF0E08081AE
:1002F0008D7F808388E98093C90086E08093CA005F
:1003000008959091C80095FFFCCF8093CE0008958A
:100310001F93CF93DF93EC0110E0FE01E10FF11D7D
:100320008081882319F0EDDF1F5FF7CFDF91CF9138
:100330001F910895292F332723303105B9F05CF43C
:100340002130310569F12230310579F582E290E002
:1003500020ED30E02EC021323105E9F022323105A6
:1003600021F58CE290E024E031E023C09927813030
:10037000910541F08230910541F0892BB1F4ECEC0C
:10038000F0E005C0E2EBF0E002C0E4E8F0E08491C8
:1003900090E09F010EC089E090E022EE30E009C0BD
:1003A00082E190E022EF30E004C080E090E020E0C5
:1003B00030E0FA01318320830895CF92DF92EF92EB
:1003C000FF920F931F93CF93DF937C018B01EA0180
:1003D000C9D1811131C0209731F088819981081BE2
:1003E000190BE80EF91EC12CD12C0115110519F1BC
:1003F0008091E80085FD14C08091E8008E7780939D
:10040000E80017D4209741F0888199818C0D9D1DBB
:100410009983888385E010C0A5D1882331F30CC06F
:10042000F70181917F018093F10001501109FFEFE5
:10043000CF1ADF0ADACF80E0DF91CF911F910F91C1
:10044000FF90EF90DF90CF90089520913F01309181
:1004500040012617370748F06115710539F42091DE
:10046000E8002E772093E80001C0B90120E0611573
:100470007105C9F13EB3332309F442C0353009F4A4
:1004800041C03091E80033FD3FC03091E80032FFB9
:1004900006C08091E80082FF29C080E00895309175
:1004A000E80030FFE4CF2091F20030E0FC01281B8F
:1004B000390BCF01820F931F6115710549F0883008
:1004C000910530F481918093F10061507109F1CF71
:1004D00021E0089709F020E08091E8008E77809372
:1004E000E800CF01C4CF2111C5CFD3CF8EB388236D
:1004F00039F0853039F08091E80083FFCACF04C01D
:1005000082E0089583E0089581E008956115710502
:1005100029F42091E8002B772093E80061157105FC
:1005200011F12EB3222341F1253041F12091E80051
:1005300023FD1EC02091E80022FFF3CFFC01CF0174
:100540002091F200222329F38091F1008193CF01C1
:10055000615071096115710591F7DBCF8EB3882366
:1005600059F0853059F08091E80080FFF7CF02C044
:1005700081E0089580E0089582E0089583E0089581
:1005800020913F01309140012617370748F061154F
:10059000710539F42091E8002E772093E80001C01E
:1005A000B90120E061157105D1F13EB3332309F49F
:1005B00043C0353009F442C03091E80033FD40C0FB
:1005C0003091E80032FF06C08091E80082FF2AC027
:1005D00080E008953091E80030FFE4CF2091F200F0
:1005E00030E0FC01281B390BC9018E0F9F1F6115DC
:1005F000710551F08830910538F484918093F100B1
:10060000319661507109F0CF21E0089709F020E0A0
:100610008091E8008E778093E800CF01C3CF21114D
:10062000C4CFD2CF8EB3882339F0853039F0809192
:10063000E80083FFC9CF04C082E0089583E00895F5
:1006400081E00895982F953058F59093E900981718
:1006500039F07091EC002091ED005091F00003C052
:10066000242F762F50E021FF19C03091EB003E7F00
:100670003093EB003091ED003D7F3093ED003091F1
:10068000EB0031603093EB007093EC002093ED00B1
:100690005093F0002091EE0027FF07C09F5FD3CF5B
:1006A0008F708093E90081E0089580E008950F93B2
:1006B0001F93CF93DF93062FEC0110E0101769F121
:1006C0009881992339F12C81E981FA816B81892FF5
:1006D0008F70853010F080E021C0223010F056E09D
:1006E00001C052E028E030E040E02E173F0720F440
:1006F0004F5F220F331FF9CF4295407F452B991F43
:100700009927991F6295660F660F607C692B9ADFA7
:10071000882309F31F5F2596D1CF81E0DF91CF9128
:100720001F910F9108958091390187FD05C0809137
:10073000E80080FF0DC010C08091E80082FD04C079
:100740008EB38111F9CF08958091E8008B7707C0AF
:100750008EB38111ECCF08958091E8008E7780935D
:10076000E80008958091E4009091E50045E620912D
:10077000EC0020FF20C02091E80020FD20C02EB317
:10078000222389F0253089F02091EB0025FD0FC050
:100790002091E4003091E5002817390741F34150DA
:1007A00041F0C901E4CF82E0089583E0089581E03B
:1007B000089584E008952091E80022FFE0CF80E0D2
:1007C000089540D042D08091D8008F778093D80090
:1007D0008091D80080688093D8008091D8008F7D68
:1007E0008093D80084E089BD86E089BD09B400FE0D
:1007F000FDCF1EBA109235011092370110923601CA
:1008000042E060E080E01EDF8091E1008E7F809317
:10081000E1008091E20081608093E2008091E2003B
:1008200088608093E2008091E0008E7F8093E000FA
:100830000895E3E6F0E080818E7F808381E08093FD
:100840003801BFCF1092E20008951092E1000895A0
:100850001F920F920FB60F9211242F933F934F9335
:100860005F936F937F938F939F93AF93BF93EF9318
:10087000FF938091E10082FF0AC08091E20082FF35
:1008800006C08091E1008B7F8093E100FFDC8091C6
:10089000E10080FF16C08091E20080FF12C08091CD
:1008A000E2008E7F8093E2008091E200806180937D
:1008B000E2008091D80080628093D80019BC1EBAF3
:1008C000B7D18091E10084FF2EC08091E20084FFC7
:1008D0002AC084E089BD86E089BD09B400FEFDCF51
:1008E0008091D8008F7D8093D8008091E1008F7E29
:1008F0008093E1008091E2008F7E8093E2008091FE
:10090000E20081608093E20080913501882311F03C
:1009100084E007C08091E30087FF02C083E001C04C
:1009200081E08EBB85D18091E10083FF21C0809161
:10093000E20083FF1DC08091E100877F8093E1008A
:1009400082E08EBB109235018091E1008E7F809312
:10095000E1008091E2008E7F8093E2008091E200CE
:1009600080618093E20042E060E080E06BDE60D175
:10097000FF91EF91BF91AF919F918F917F916F9177
:100980005F914F913F912F910F900FBE0F901F904D
:1009900018951F93CF93DF93CDB7DEB7AA970FB605
:1009A000F894DEBF0FBECDBFE9E3F1E08091F10026
:1009B000819321E0E134F207C9F765DC8091E8001A
:1009C00083FF1EC19091390180913A01853009F46D
:1009D00077C030F4813081F168F0833069F110C163
:1009E000883009F4E0C0893009F4EFC0863009F09E
:1009F00007C187C0903881F0923809F001C1809119
:100A00003D018F708093E9008091EB0085FB882782
:100A100080F91092E90006C080913601909137016B
:100A2000911182609091E800977F9093E800809305
:100A3000F1001092F100C2C0292F2D7F09F0E0C013
:100A4000992319F0923061F0DBC090913B01913015
:100A500009F0D6C0833009F090E0909337012AC0A6
:100A600090913B01911126C020913D012F7009F416
:100A7000C7C02093E9009091EB0090FF1BC083302A
:100A800021F48091EB00806213C08091EB008061C3
:100A90008093EB0081E090E0022E01C0880F0A9461
:100AA000EAF78093EA001092EA008091EB008860F8
:100AB0008093EB001092E9008091E800877F81C06D
:100AC00091119EC010913B011F778091E3008078C7
:100AD000812B8093E3008091E800877F8093E8007A
:100AE00022DE8091E80080FFFCCF8091E3008068E7
:100AF0008093E300112311F083E001C082E08EBBFC
:100B00007FC09058923008F07BC080913B0190915B
:100B10003C018C3D23E0920771F583E08A838AE2F1
:100B200089834FB7F894DE01139620E03EE051E24E
:100B3000E32FF0E050935700E49120FF03C0E295CB
:100B4000EF703F5FEF708E2F90E0EA3010F0C796A5
:100B500001C0C0968D939D932F5F243149F74FBFFD
:100B60008091E800877F8093E8006AE270E0CE0120
:100B700001966BDC12C0AE014F5F5F4F60913D018B
:100B8000D9DB009709F43CC02091E800277F20932F
:100B9000E800BC0189819A81F3DC8091E8008B77C1
:100BA0008093E8002DC0903859F58091E800877F48
:100BB0008093E800809135018093F1008091E800F6
:100BC0008E778093E800AFDD1BC0911119C0909122
:100BD0003B019230A8F48091E800877F8093E80081
:100BE00090933501A0DD80913501811104C0809181
:100BF000E30087FF02C084E001C081E08EBB3ADBE6
:100C00008091E80083FF0AC08091E800877F80938D
:100C1000E8008091EB0080628093EB00AA960FB60B
:100C2000F894DEBF0FBECDBFDF91CF911F91089525
:100C30000895CF938EB38823A9F08091E9008F7037
:100C40009091EC0090FF02C090E801C090E0C92FA5
:100C5000C82B1092E9008091E80083FD9ADECF70E6
:100C6000C093E900CF9108956F927F928F929F92E7
:100C7000AF92BF92CF92DF92EF92FF920F931F93AA
:100C8000CF93DF9300D01F92CDB7DEB77C01ADB616
:100C9000BEB68091E80083FF02C1F701808190E039
:100CA00020913D0130913E012817390709F0F7C026
:100CB00080913A01833009F499C030F4813071F0A9
:100CC000823009F4D0C0EBC08A3009F4B4C08B3054
:100CD00009F49DC0893009F0E2C04BC08091390110
:100CE000813A09F0DCC08DB69EB61A8219828091D5
:100CF0003B0110913C018B83F701408550E08DB79B
:100D00009EB7841B950B0FB6F8949EBF0FBE8DBF88
:100D1000EDB7FEB731966F0160E070E0CF01BBD157
:100D20004FEF410F8E010F5F1F4F9601BE016D5FA8
:100D30007F4FC701B7DAF70186819781009721F0CD
:100D4000408550E0B6019ED11092E9008091E80004
:100D5000877F8093E8008B8181118093F100698106
:100D60007A81C60172DB8091E8008B778093E8007E
:100D700037C080913901813209F091C08DB69EB69D
:100D800000913F011091400170903B0160903C0147
:100D90008DB79EB7801B910B0FB6F8949EBF0FBE08
:100DA0008DBFEDB7FEB731966F018091E800877F68
:100DB0008093E800B801CF01A9DB8091E8008E772D
:100DC0008093E80021E0711001C020E030E0021BB8
:100DD000130B2C0D3D1D4FEF460D672DC7017FDA1C
:100DE0000FB6F8949EBE0FBE8DBE59C080913901DA
:100DF000813A09F054C08091E800877F8093E80031
:100E00008091E80080FFFCCFF701818540C0809190
:100E10003901813209F043C08091E800877F8093D7
:100E2000E80081DC90913B0181E0911101C080E0FC
:100E3000F701818734C080913901813281F5809139
:100E4000E800877F8093E8006EDC80913B01909101
:100E50003C01882736E0969587953A95E1F7F701AA
:100E6000958784871CC080913901813AC1F48091B3
:100E7000E800877F8093E8008091E80080FFFCCF46
:100E8000F7018485958596958795969587958093A6
:100E9000F1008091E8008E778093E80044DC0FB683
:100EA000F894BEBE0FBEADBE0F900F900F90DF91B5
:100EB000CF911F910F91FF90EF90DF90CF90BF9057
:100EC000AF909F908F907F906F900895FC0139961E
:100ED00027E0DF011D922A95E9F721E0FC01218737
:100EE00024EF31E03587248723E0248361E00196F5
:100EF000DECB5F926F927F928F929F92AF92BF9262
:100F0000CF92DF92EF92FF920F931F93CF93DF93D5
:100F100000D01F92CDB7DEB77C01ADB6BEB68EB3A2
:100F2000843009F08AC08091E4009091E500F701D7
:100F3000228533852817390709F47FC081818F7096
:100F40008093E9008091E80085FF77C08DB69EB65A
:100F5000408550E08DB79EB7841B950B0FB6F89473
:100F60009EBF0FBE8DBFEDB7FEB731966F011B82DE
:100F70001A82198260E070E0CF018DD08E010F5F80
:100F80001F4F960140E0BE016D5F7F4FC7018AD9B8
:100F9000682EF70184859585892B41F021E08685AF
:100FA0009785892B09F020E0722E01C0712CF70182
:100FB000068117810115110589F049815A81B8010F
:100FC000C60153D055245394892B09F4512CF701B1
:100FD000408550E0B601C80155D001C0512C29818F
:100FE0003A81232BF1F0611004C0511002C070FE51
:100FF00018C0F701848595859787868781818F70D2
:101000008093E9008B8181118093F10069817A815D
:1010100040E050E0C601D1D98091E8008E778093FE
:10102000E8008091E4009091E500F70193878287C2
:101030000FB6F8949EBE0FBE8DBE0FB6F894BEBE1E
:101040000FBEADBE0F900F900F90DF91CF911F910B
:101050000F91FF90EF90DF90CF90BF90AF909F9057
:101060008F907F906F905F900895FB01DC0104C02A
:101070008D910190801921F441505040C8F7881B90
:10108000990B0895FB01DC0102C001900D924150C3
:101090005040D8F70895DC0101C06D934150504095
:0810A000E0F70895F894FFCF7A
:1010A8000300810800000133010200000000000075
:1010B8000075700A0D00646E0A0D000D0A4D656416
:1010C800696120436F6E74726F6C6C65720D0A00F3
:00000001FF
