:100000000C9434000C9449000C9449000C94490061
:100010000C9449000C9449000C9449000C9449003C
:100020000C9449000C9449000C9449000C9449002C
:100030000C9449000C9449000C9449000C9449001C
:100040000C9449000C9449000C94B2000C944900A3
:100050000C9449000C9449000C9449000C944900FC
:100060000C9449000C94490011241FBECFEFD8E036
:10007000DEBFCDBF11E0A0E0B1E0E4EDF1E002C0F1
:1000800005900D92A035B107D9F70E944B000C9452
:10009000E8000C9400000E94AC000E94590080E02F
:1000A00091E00E94790082E191E00E9479007894C9
:1000B000FFCF1092C50087E68093C400E0ECF0E02B
:1000C00080818D7F808388E98093C10086E0809362
:1000D000C20008958091C00087FFFCCF8091C600C8
:1000E0000895982F8091C00085FFFCCF9093C600A3
:1000F0000895AC0120E007C08091C00085FFFCCFCF
:10010000E093C6002F5FFA01E20FF11DE081EE23BC
:1001100099F70895282F8091C00085FFFCCF80912A
:10012000C00085FFFCCF822F6AE00E94DC000E94A5
:10013000DC00905D9093C6008091C00085FFFCCFED
:100140008091C00085FFFCCF822F6AE00E94DC0016
:10015000905D9093C6000895E1E6F0E080E880832A
:10016000108208951F920F920FB60F9211242F93B1
:100170003F934F935F936F937F938F939F93AF932F
:10018000BF93EF93FF930E946A000E94710086E480
:1001900091E00E947900FF91EF91BF91AF919F9103
:1001A0008F917F916F915F914F913F912F910F9020
:1001B0000FBE0F901F901895991B79E004C0991FEE
:1001C000961708F0961B881F7A95C9F780950895B1
:0401D000F894FFCFD1
:1001D4000D0A0A0A48656C6C6F20576F726C640DC7
:1001E4000A000D0A0A0A54686520717569636B2058
:1001F40062726F776E20666F78206A756D706564C1
:10020400206F76657220746865206C617A79206449
:100214006F672E0D0A00204F756368210D0A0000D8
:00000001FF
