:100000000C943A000C944F000C944F000C944F0049
:100010000C944F000C944F000C944F000C944F0024
:100020000C944F000C944F000C944F000C944F0014
:100030000C944F000C944F000C944F000C944F0004
:100040000C944F000C944F000C944F000C944F00F4
:100050000C944F000C944F000C944F000C94A10092
:100060000C944F000C944F000C944F000C944F00D4
:100070000C944F0011241FBECFEFD4E0DEBFCDBFE4
:1000800011E0A0E0B1E0EEEEF1E002C005900D92CB
:10009000AA31B107D9F70E94D1000C94F5000C9455
:1000A00000001092CD008FEC8093CC00E8ECF0E0E3
:1000B00080818D7F808388E98093C90086E080936A
:1000C000CA0008958091C80087FFFCCF8091CE00C0
:1000D00008959091C80095FFFCCF8093CE000895BD
:1000E0001F93CF93DF93EC0110E0FE01E10FF11DB0
:1000F0008081882321F00E9469001F5FF6CFDF9185
:10010000CF911F910895CF93C82F8091C80085FF8C
:10011000FCCF2AE08C2F622F0E94E9000E94E900A8
:1001200080E3890F0E9469008091C80085FFFCCFA1
:100130008C2F6AE00E94E90080E3890FCF910C9434
:1001400069001F920F920FB60F9211242F933F93C5
:100150004F935F936F937F938F939F93AF93BF93CF
:10016000EF93FF930E9462000E94690080E191E09A
:100170000E947000FF91EF91BF91AF919F918F917D
:100180007F916F915F914F913F912F910F900FBE93
:100190000F901F901895E1E6F0E080E880831082D0
:1001A00008950E94CB000E94510080E091E00E94DF
:1001B00070007894509A91E08BB189278BB92FEF1A
:1001C00033ED80E3215030408040E1F700C0000073
:1001D000F3CF991B79E004C0991F961708F0961B7E
:0E01E000881F7A95C9F780950895F894FFCF8F
:1001EE000D0A0A47616D65204F7665722E0D0A0065
:0A01FE00204F756368210D0A000010
:00000001FF
